:020000040800F2
:10000000E80E002039020008B1020008B30200081F
:10001000BD020008C7020008D1020008000000006D
:10002000000000000000000000000000DB020008EB
:10003000DD02000800000000DF020008E102000805
:10004000530200085302000853020008530200083C
:1000500053020008530200088D02000853020008F2
:10006000530200085302000853020008530200081C
:10007000530200085302000853020008530200080C
:1000800053020008530200085302000853020008FC
:1000900079020008530200085302000853020008C6
:1000A00053020008530200085302000853020008DC
:1000B00053020008530200085302000853020008CC
:1000C00053020008530200085302000853020008BC
:1000D00053020008851C0008530200085302000860
:1000E000530200085302000881020008530200086E
:1000F000530200085302000853020008530200088C
:10010000530200085302000853020008530200087B
:10011000530200085302000853020008530200086B
:10012000530200085302000853020008530200085B
:1001300000F002F800F05FF80AA090E8000C82449A
:100140008344AAF10107DA4501D100F054F8AFF277
:10015000090EBAE80F0013F0010F18BFFB1A43F0A5
:10016000010318475C4500007C4500000A444FF03D
:10017000000C10F8013B13F0070408BF10F8014B06
:100180001D1108BF10F8015B641E05D010F8016B4B
:10019000641E01F8016BF9D113F0080F1EBF10F8AF
:1001A000014BAD1C0C1B09D16D1E58BF01F801CBD2
:1001B000FAD505E014F8016B01F8016B6D1EF9D555
:1001C0009142D6D37047000000230024002500266A
:1001D000103A28BF78C1FBD8520728BF30C148BFAA
:1001E0000B607047782904F0B380002070471FB57A
:1001F0001FBD10B510BD04F005FA1146FFF7F7FF5B
:1002000001F0B5FD04F023FA03B4FFF7F2FF03BCDD
:1002100001F0D4FCEFF30980704780F30988704740
:10022000EFF30880704780F30888704740BA704742
:10023000C0BA704730BF00000948804709480047EE
:10024000FEE7FEE7FEE7FEE7FEE7FEE7FEE7FEE786
:10025000FEE7FEE704480549054A064B70470000E3
:100260003B04000831010008E8080020E80E0020E7
:10027000E80A0020E80A002010B503F071FA10BD6A
:1002800010B54FF4802000F0FEFD10BD10B5012028
:1002900000F0E8FD58B113480068407A00F02000F3
:1002A00010B1012003F052FF012000F0ECFD10BD61
:1002B000704710B50CA004F003F810BD10B511A0E4
:1002C00003F0FEFF10BD10B515A003F0F9FF10BD3F
:1002D00010B51AA003F0F4FF10BD704770477047C7
:1002E000704700004C0000200D0A486172644661AE
:1002F000756C745F48616E646C6572204552524F34
:10030000520D0A000D0A4D656D4D616E6167655FA6
:1003100048616E646C6572204552524F520D0A005E
:100320000D0A4275734661756C745F48616E646C4A
:100330006572204552524F520D0A00000D0A557346
:100340006167654661756C745F48616E646C657267
:10035000204552524F520D0A000000000CB50020FB
:10036000019000906C48006840F480306A49086051
:1003700000BF6948006800F4003000900198401CFC
:100380000190009818B90198B0F5A06FF1D16248BA
:10039000006800F4003010B10120009001E000205E
:1003A00000900098012843D15C48006840F010009C
:1003B0005A4908600846006820F0030008600846B3
:1003C000006840F0020008605348406852494860A5
:1003D0000846406848600846406840F480604860CD
:1003E0000846406820F47C1048600846406840F4A5
:1003F000E81048600846006840F08070086000BF60
:100400004548006800F000700028F9D04248406874
:1004100020F00300404948600846406840F0020070
:10042000486000BF3C48406800F00C000828F9D143
:100430000CBD10B5FFF792FF10BD10B5364800682F
:1004400040F00100344908600846406834490840DB
:100450003149486008460068324908402E49086022
:100460000846006820F4802008600846406820F4B0
:10047000FE0048604FF41F008860FFF7DAFF4FF07E
:1004800000602949086010BD10B50021002000223D
:10049000214B5B6803F00C0121B1042906D0082927
:1004A00028D107E0214B224C236027E01F4B204C32
:1004B000236023E0184B5B6803F47010164B5B68F5
:1004C00003F48032022303EB904022B9194B4343DB
:1004D000174C23600DE0104B5B6803F4003323B12D
:1004E000144B4343124C236003E0104B4343104C26
:1004F000236003E00D4B0E4C236000BF00BF064B92
:100500005B68C3F303130C4CE15C094B1B68CB40E5
:10051000074C236010BD0000001002400020024084
:100520000000FFF8FFFFF6FE08ED00E000127A0081
:100530000000002000093D00040000203149014373
:10054000314A1160704770B5002100230F22C47832
:1005500004B32D4C246804F4E064C4F5E064210A7B
:10056000C1F10403CA40447804FA03F184781440CA
:1005700021430901254C0678A155047804F01F0594
:100580000124AC4005786D11AD0005F1E025C5F8FA
:10059000004109E0047804F01F050124AC401C4D23
:1005A0000678761145F8264070BD1A4A0A40024383
:1005B000154B1B1F1A60704739B1134A121D126880
:1005C0000243114B1B1D1A6006E00F4A121D1268F0
:1005D00082430D4B1B1D1A607047042808D14FF051
:1005E000E021096941F004014FF0E022116107E0C8
:1005F0004FF0E021096921F004014FF0E022116180
:10060000704700000000FA050CED00E000E400E097
:1006100080E100E080FFFF1F10B50446CC48844213
:1006200008D10121042001F09DF80021042001F0EF
:1006300099F846E0C748844208D10121082001F01A
:1006400091F80021082001F08DF83AE0C248844278
:1006500008D10121102001F085F80021102001F0BF
:1006600081F82EE0BD48844208D10121202001F00C
:1006700079F80021202001F075F822E0B848844282
:1006800008D10121402001F06DF80021402001F047
:1006900069F816E0B348844208D10121802001F0B6
:1006A00061F80021802001F05DF80AE0AE48844244
:1006B00007D10121801501F055F80021A01501F0A6
:1006C00051F810BD10B50121084601F04BF800218A
:1006D000012001F047F810BD2DE9F0410246002548
:1006E0000026002000230024002791F803C00CF00E
:1006F0000F0591F803C00CF0100CBCF1000F03D0F3
:1007000091F802C04CEA050591F800C0BCF1000F59
:1007100031D0146800202BE04FF0010C0CFA00F3EC
:10072000B1F800C00CEA03069E4220D183004FF0CE
:100730000F0C0CFA03F7BC4305FA03FC4CEA040463
:1007400091F803C0BCF1280F06D14FF0010C0CFA50
:1007500000FCC2F814C00AE091F803C0BCF1480FD5
:1007600005D14FF0010C0CFA00FCC2F810C0401C7F
:100770000828D1D31460B1F800C0BCF1FF0F34DDFC
:10078000546800202EE000F1080C4FF0010808FA30
:100790000CF3B1F800C00CEA03069E4221D183009D
:1007A0004FF00F0C0CFA03F7BC4305FA03FC4CEABC
:1007B000040491F803C0BCF1280F05D100F1080C26
:1007C00008FA0CF8C2F8148091F803C0BCF1480F85
:1007D00007D100F1080C4FF0010808FA0CF8C2F834
:1007E0001080401C0828CED35460BDE8F0814FF63D
:1007F000FF710180022181700421C170704702469F
:10080000002093680B400BB1012000E000207047EE
:100810000146886880B2704702460020D3680B40CA
:100820000BB1012000E0002070470146C86880B28B
:10083000704701617047416170470AB1016100E092
:1008400041617047C16070474FF480320A43826152
:100850008161826182698269704702460020434B50
:1008600018684FF68073184040EA021008433F4B67
:10087000186070473E49C8617047F0B50A460023CA
:1008800000240021002500F00046B6F1004F02D1FF
:10089000364EF16901E0354E7168C0F3034583B20D
:1008A00000F44016B6F5401F08D121F070612F4EBC
:1008B000766826F070662D4F7E6012E000F4801698
:1008C000B6F5801F06D1032606FA05F4A14341F0D0
:1008D000706106E0460D360103FA06F6B14341F0B9
:1008E000706122B1460D360103FA06F6314300F07D
:1008F0000046B6F1004F02D11C4EF16101E01B4EE3
:100900007160F0BD30B500228B071C0F0F2303FA76
:1009100004F2164B08338C1053F824309343134CD5
:1009200008348D1044F8253023468C1053F82430B9
:100930008C07240F00FA04F423430C4C08348D1068
:1009400044F8253030BD0A49DC31086070470000AA
:1009500000080140000C014000100140001401405B
:1009600000180140001C014000200140000001402F
:100970000000204210B50446FB48844209D1012101
:10098000880300F0EFFE00214FF4804000F0EAFE03
:1009900032E0F648844209D10121480400F0EFFE1C
:1009A00000214FF4003000F0EAFE25E0F0488442D8
:1009B00009D10121880400F0E2FE00214FF48020DB
:1009C00000F0DDFE18E0EB48844209D10121C804A3
:1009D00000F0D5FE00214FF4002000F0D0FE0BE027
:1009E000E548844208D10121080500F0C8FE002135
:1009F0004FF4801000F0C3FE10BD2DE9F04786B023
:100A000005460E460024A24600BFA1460027B08935
:100A100000B100BF2F462C8A4CF6FF700440F088CE
:100A200004432C82AC894EF6F3100440B08831891F
:100A30000843718908430443AC81AC8A4FF6FF40F8
:100A40000440B0890443AC8201A800F004FEC6480B
:100A5000874202D1DDF810A001E0DDF80CA0A889E2
:100A600000F4004040B10AEBCA0000EB0A10316804
:100A70004900B0FBF1F807E00AEBCA0000EB0A10EE
:100A800031688900B0FBF1F86420B8FBF0F0040194
:100A90002009642101FB1089A88900F4004040B1BD
:100AA000322000EBC900B0FBF1F000F00700044376
:100AB00008E0322000EB09106421B0FBF1F000F0F7
:100AC0000F0004432C8106B0BDE8F0874FF41651A7
:100AD000016000218180C18001810C2141810021C0
:100AE0008181704710B502460020108A4FF2FF0343
:100AF00018400B884C8823438C882343CC8823439D
:100B00001843108210BD0021018041808180C18086
:100B1000704721B1828942F40052828104E08289C7
:100B20004DF6FF731A4082817047F0B503460024EA
:100B300000260025002040F66A17B94200D100BF08
:100B40001846C1F3421401F01F06012707FA06F503
:100B5000012C01D10C3004E0022C01D1103000E056
:100B600014301AB107682F43076002E00768AF43EB
:100B70000760F0BD1AB1838A0B43838202E0838A47
:100B80008B4383827047028A4FF6F0731A400282C9
:100B9000028A0A430282704782894FF2FF731A4029
:100BA000828182890A438281704721B1828942F021
:100BB0000202828104E082894FF6FD731A4082812D
:100BC0007047028A4FF6DF731A400282028A0A4394
:100BD0000282704721B1028A42F48042028204E01C
:100BE000028A4BF6FF731A4002827047C1F3080273
:100BF0008280704701468888C0F308007047818969
:100C000041F0010181817047028BD2B20283028BD5
:100C100042EA012202837047028B02F47F42028380
:100C2000028B0A430283704721B1828A42F020027C
:100C3000828204E0828A4FF6DF731A408282704714
:100C400021B1828A42F01002828204E0828A4FF649
:100C5000EF731A408282704721B1828A42F0080203
:100C6000828204E0828A4FF6F7731A4082827047CC
:100C700021B1828942F40042828103E08289C2F379
:100C80000E028281704721B1828A42F40062828220
:100C900004E0828A4FF2FF731A4082827047828A90
:100CA0004FF6FB731A408282828A0A43828270471F
:100CB00021B1828A42F00202828204E0828A4FF6E7
:100CC000FD731A408282704702460020B1F5007F12
:100CD00000D100BF13880B400BB1012000E00020C1
:100CE000704701F40072B2F5007F00D100BFCA4323
:100CF0000280704770B502460024002300250020C2
:100D000040F66A16B14200D100BFC1F3421501F0AE
:100D10001F03012606FA03F3012D02D19689334001
:100D200006E0022D02D1168A334001E0968A334054
:100D30000C12012606FA04F41688344013B10CB1E3
:100D4000012000E0002070BD10B50022002340F615
:100D50006A14A14200D100BF0A1201249440A3B238
:100D6000DC43048010BD0000003801400044004016
:100D700000480040004C0040005000400020444922
:100D80000860091D0860091D0860091D08604148C8
:100D90003F4914310860704700213D498279002A9B
:100DA0003AD00A46126803689A430B461A600A1D35
:100DB000126803689A430B1D1A60027911440A688D
:100DC00003681A430A60324A0832126803689A4379
:100DD0002F4B08331A601A1D126803689A432C4B74
:100DE0000C331A604279102A0ED11A1F1268036858
:100DF0001A43274B08331A601A1D126803681A43F6
:100E0000234B0C331A600DE02149427911440A68E2
:100E100003681A430A6005E0027911440A6803680E
:100E20009A430A6070470021016001710C214171F1
:100E30000021817170471649103109680143144A35
:100E400010321160704701460020114A14321268B6
:100E50000A400AB1012000E0002070470C4914311B
:100E600008607047014600200022094B1B6803EA16
:100E70000102074B14331B680B4013B10AB1012068
:100E800000E00020704702491431086070470000FC
:100E900000040140FFFF0F0001460020FE4A1068D9
:100EA00000F03800084310607047FB49096821F0E2
:100EB0000801F94A11601146096801431160704741
:100EC000F549096821F01001F34A116011460968DB
:100ED000014311607047F148EF494860F0484860AD
:100EE0007047EE48EC494860ED4848607047EA4872
:100EF000006940F08000E84908617047E6480069F1
:100F000040F08000E449086170470420E249C96864
:100F100001F0010109B101200EE0DF49C96801F0CB
:100F2000040109B1022007E0DB49C96801F01001A2
:100F300009B1032000E00420704700B502460423F5
:100F4000FFF7E3FF034603E0FFF7DFFF0346521E10
:100F5000012B01D1002AF7D102B90523184600BDA3
:100F600030B5044604254FF43020FFF7E6FF054670
:100F7000042D17D1C848006940F00200C649086135
:100F800008464461006940F0400008614FF4302099
:100F9000FFF7D3FF0546C048006941F6FD710840E0
:100FA000BD490861284630BD10B504244FF43020F7
:100FB000FFF7C3FF0446042C16D1B748006940F080
:100FC0000400B54908610846006940F04000086126
:100FD0004FF43020FFF7B1FF0446AF48006941F6F7
:100FE000FB710840AC490861204610BD00B50246BF
:100FF0000423FFF78AFF034603E0FFF786FF03465B
:10100000521E012B01D1002AF7D102B9052318463F
:1010100000BD10B504244FF43020FFF7E7FF04466D
:10102000042C16D19C48006940F004009A490861DC
:101030000846006940F0400008614FF43020FFF797
:10104000D5FF04469448006941F6FB710840924977
:101050000861204610BD00208F49C96901F00201D6
:1010600009B1012000E00020704730B5A525042417
:10107000FFF7F1FF00B100254FF43020FFF75DFFCF
:101080000446042C3AD185488349886084488860A6
:101090000846006940F0200008610846006940F0F9
:1010A000400008614FF43020FFF747FF0446042C4E
:1010B0001BD17948006941F6DF7108407649086123
:1010C0000846006940F01000086176480580E0029B
:1010D000FFF733FF0446052C10D06F48006941F636
:1010E000EF7108406C49086108E0052C06D06A4899
:1010F000006941F6EF71084067490861204630BD3C
:1011000078B506460C46042500200090E802FFF75B
:1011100014FF0546042D24D15F48006940F001000A
:101120005D4908613480E802FFF707FF0546042D9A
:1011300010D1B01C0090200C00990880E802FFF745
:10114000FCFE05465448006941F6FE7108405249CC
:10115000086106E05048006941F6FE7108404E49BA
:101160000861284678BD70B504460D460426F00295
:10117000FFF7E3FE0646042E11D14748006940F010
:101180000100454908612580F002FFF7D6FE0646BA
:101190004148006941F6FE7108403F490861304608
:1011A00070BD70B505460E460424E002FFF7C5FE8B
:1011B0000446042C17D1394837498860384888607C
:1011C0000846006940F0100008612E80E002FFF739
:1011D000B4FE0446052C06D02F48006941F6EF7195
:1011E00008402D490861204670BD2DE9F0430446B2
:1011F0004FF6FF763746B046B1460425E443E6B2E3
:10120000C4F30727C4F307484FEA1469E802FFF75D
:1012100094FE0546042D49D120481F498860204886
:1012200088600846006940F010000861FF2E06D073
:101230001C4808300680E802FFF77FFE0546042DB3
:1012400008D1FF2F06D017480A300780E802FFF7C1
:1012500074FE0546042D0AD1B8F1FF0F07D01148DE
:101260000C30A0F80080E802FFF767FE0546042D69
:101270000AD1B9F1FF0F07D00A480E30A0F800904C
:10128000E802FFF75AFE0546052D0FD00248006917
:1012900041F6EF71084007E0002002402301674556
:1012A000AB89EFCD00F8FF1F664908612846BDE80D
:1012B000F08330B5054604244FF43020FFF73DFE9F
:1012C0000446042C41D160485E4988605F488860CC
:1012D0000846006940F0200008610846006940F0B7
:1012E000400008614FF43020FFF727FE0446042C2D
:1012F00022D15448006941F6DF7108405149086124
:101300000846006940F0100008611DB100205049F6
:10131000088002E0A5204E4908804FF43020FFF7F6
:101320000CFE0446052C10D04648006941F6EF71CA
:1013300008404449086108E0052C06D0414800698E
:1013400041F6DF7108403F490861204630BDF0B5E5
:1013500005460E46174604243B483A4988603B48F8
:101360008860E002FFF7E9FD0446042C19D13548F6
:10137000006940F010003349086147F0F80030433D
:1013800028433349891C0880E002FFF7D6FD044654
:10139000052C06D02B48006941F6EF710840294919
:1013A00008612046F0BD2748C0698008704725487D
:1013B000006A704700202349096801F0200109B143
:1013C000012000E00020704729B11E4A1269024343
:1013D0001C4B1A6104E01B4A12698243194B1A61C3
:1013E000704701460020012908D1164AD26902F04F
:1013F00001020AB1012008E0002006E0114AD2688B
:101400000A400AB1012000E0002070470D49C86081
:10141000704704200B49C96801F0010109B101209E
:101420000EE00849C96801F0040109B1022007E093
:101430000449C96801F0100109B1032000E004204B
:10144000704700000020024023016745AB89EFCDC3
:1014500000F8FF1FDF48006840F00100DD49086028
:1014600008464068DC490840DA4948600846006898
:10147000DA490840D74908600846006820F480200F
:1014800008600846406820F4FE0048604FF41F00E2
:1014900088607047CF49096821F48031CD4A1160D6
:1014A0001146096821F480211160B0F5803F03D016
:1014B000B0F5802F0ED106E0C649096841F48031AD
:1014C000C44A116007E0C349096841F4A021C14A38
:1014D000116000E000BF00BF704710B50146002258
:1014E000002300204A11012A02D1BA4C236806E0E9
:1014F000022A02D1B74C236A01E0B64C636A01F0BC
:101500001F02012494401C400CB1012000E0002087
:1015100010BD38B5002000900024002500BF312008
:10152000FFF7DBFF05460098401C00900098B0F5DF
:10153000A06F01D0002DF2D03120FFF7CEFF08B10F
:10154000012400E00024204638BD01460020A14AC5
:10155000106820F0F80040EAC10010607047A04910
:1015600008607047024600209A4B586820F47C10AF
:1015700042EA01031843974B586070479849086640
:10158000704701460020934A506820F0030008434A
:10159000506070478F48406800F00C00704701466B
:1015A00000208C4A506820F0F000084350607047DB
:1015B00001460020874A506820F4E06008435060EC
:1015C000704701460020834A506820F4605040EA8A
:1015D000C1005060704729B17E4A527A02437D4B68
:1015E0005A7204E07B4A527A82437A4B5A727047AD
:1015F0007B49D8310860704701460020754A506821
:1016000020F440400843506070470021714A203266
:101610001170704A82F82010012802D004280AD1E3
:1016200004E001216B4A2032117005E00521694A6E
:101630002032117000E000BF00BF704769490860A8
:1016400070476449096A0143624A116270476549FB
:1016500044390860704730B500210022002400237F
:101660005C4D6D6805F00C0121B1042905D00829F5
:1016700023D105E05C4D056022E05B4D05601FE075
:10168000544D6D6805F47012524D6D6805F4803448
:10169000022505EB92421CB9544D554305600BE001
:1016A0004C4D6D6805F400351DB1504D5543056036
:1016B00002E04D4D5543056002E04B4D056000BF13
:1016C00000BF444D6D6805F0F0010909484D6B5CA1
:1016D0000568DD4045603F4D6D6805F4E061090A2D
:1016E000434D6B5C4568DD4085603A4D6D6805F49F
:1016F0006051C90A3E4D6B5C4568DD40C560354DA3
:101700006D6805F44041890B3A4D6B5CC568B5FBCB
:10171000F3F5056130BD29B12E4A526902432D4BC4
:101720005A6104E02B4A526982432A4B5A6170473E
:1017300029B1284A92690243264B9A6104E0254A5E
:1017400092698243234B9A61704729B1214AD26939
:101750000243204BDA6104E01E4AD26982431D4BEA
:10176000DA61704729B11B4AD2680243194BDA602B
:1017700004E0184AD2688243164BDA60704729B1F8
:10178000144A12690243134B1A6104E0114A1269A8
:101790008243104B1A617047124940390860704704
:1017A0000F49C86470470B49C87170470948406ABF
:1017B00040F0807007494862704701460020054AA2
:1017C00092680A400AB1012000E0002070470149F8
:1017D00088727047001002400000FFF8FFFFF6FE1D
:1017E000000042428004424200127A0000093D009B
:1017F00014000020240000204FF47A7141434FF47C
:101800007A725143164A11601649096841F0807195
:10181000144A11601449096841F00101124A11602B
:10182000704730B50146104C62680D4C24680F4D6E
:10183000B4FBF5F404FB01F3D018904205D900BFC6
:10184000094C64688442FBD309E000BF064C64681D
:101850008442FBD800BF044C64688442FBD330BD93
:1018600028000020FCED00E0001000E040420F00E6
:101870002DE9F84307460C4615461E46DDF8208044
:1018800001213846FFF754FFADF800508DF8026093
:101890008DF8038069462046FEF71EFFBDE8F883F9
:1018A000B94A11880A131303C1F3032203EB02237D
:1018B000C1F3031203EB021201F00F031A4491B2B9
:1018C0004D22027043224270552282704322C27020
:1018D00061220271702242713A2282714FF47A724F
:1018E00091FBF2F232B14FF47A7291FBF2F23032A4
:1018F000C27101E02022C2714FF47A7291FBF2F3BF
:1019000002FB1312642392FBF3F230320272642260
:1019100091FBF2F302FB13120A2392FBF3F2303233
:1019200042720A2291FBF2F302FB131230328272EE
:101930004B22C27262220273704770B5044693480C
:1019400005682A4692A1204602F0C6FC70BD934A63
:101950000A4002438D4B08331A60704710B50446A5
:101960002046FEF7EBFD10BDF8B504460D461746C0
:101970001E463046FFF7F2FF8DF800708DF80140EB
:101980008DF8025001208DF803006846FEF7DBFD5C
:10199000F8BD00B5002082490861C8601420486184
:1019A00000208861C8610846006840F001000860B6
:1019B000084640687B490840794948600846006805
:1019C00079490840764908600846006820F480207C
:1019D00008600846406820F4FE00486000208860E7
:1019E00000214FF00060FFF7B2FF00BD10B567485F
:1019F0001030006840F00400644910310860684805
:101A0000C06940F080506649C8616848406840F449
:101A10008070664948600846006840F0040008602D
:101A20000846006840F002000860FEF703FC10BDA5
:101A30005F4856490C31086070475949896941F03F
:101A40000101574A91615B49496821F0E061594AB7
:101A500051601146496841EA00615160704730B5F4
:101A600004460025FFF795FF4D48006840F480309C
:101A70004B49086000BF4A480068400C0028FAD073
:101A80004FF4806046494860A01EC4B208464068D2
:101A900040EA844048600846406840F4803048602E
:101AA0004548006840F03200434908603C480068FF
:101AB00040F080703A49086000BF39480068400E25
:101AC0000028FAD03648406840F0020034494860A7
:101AD00005E033484068C0F3870505F00305022D93
:101AE000F7D130BD01460A2091FBF0F200FB121045
:101AF0000A2291FBF2F240EA0210C0B2704701469E
:101B000001F00F000A1102EB820200EB4200C0B2AA
:101B1000704701464FF47A7091FBF0F000034FF4E8
:101B20007A7291FBF2F302FB1312642392FBF3F23D
:101B300040EA02201A4691FBF2F302FB13120A2339
:101B400092FBF3F240EA02101A4691FBF2F302FB19
:101B50001312104380B27047014608134FF47A7293
:101B60005043C1F3032202EBC20303EB021200EB6A
:101B70008200C1F3031202EB820200EB420001F08B
:101B80000F02104480B27047E0F7FF1F00ED00E045
:101B90004350552049443A253038580080FFFF1FF4
:101BA000001002400000FFF8FFFFF6FE007000404A
:101BB0000400FA050000014000200240014600BF79
:101BC000704700BF5C4A128802F04002002AF9D038
:101BD000C2B2594B1B1D1A80704710B586B004461F
:101BE00055480C30008840F4807053490C3108800F
:101BF0000846008840F0200008804FF4A0632522AA
:101C000003210846FFF7B0FE012144F20400FFF76C
:101C10008FFD4948FEF7AEFE4FF40070ADF814009A
:101C200003208DF8160018208DF8170005A94348E9
:101C3000FEF752FD4FF48060ADF8140004208DF8DB
:101C4000170005A93D48FEF747FD01940020ADF8B7
:101C50000800ADF80A00ADF80C00ADF810000C203B
:101C6000ADF80E0001A93448FEF7C7FE012240F28C
:101C700025513148FEF759FF01212F48FEF749FF52
:101C800006B010BD10B540F225512B48FFF732F8D1
:101C9000002850D02848FEF7ADFFC4B2284800887D
:101CA00000F40040002846D12548008800F4804018
:101CB00038B30A2C1ED00D2021490988C1F30D012B
:101CC000204A50541E480088401C1D490880084680
:101CD0000088C0F30D0011460C5419480088401CC0
:101CE00017490880084600884BF6FF7108401449E0
:101CF000088020E01248008840F400401049088025
:101D000019E00D2C06D10E48008840F480400C49A3
:101D1000088010E00A480088C0F30D0009490C54FF
:101D200007480088401C06490880084600883E286D
:101D300001DD0020088010BD00380140000801408E
:101D4000300000200C04002008B50820ADF8000089
:101D500010208DF8030003208DF8020069462A4800
:101D6000FEF7BAFC08212848FEF763FD08BD0024F1
:101D70004820FFF741FD4FF41650FFF72EFF0121D9
:101D80000D20FFF7D5FC01212048FEF776FD01F07C
:101D90005FFC4FF480411E48FEF74BFD01F063FCF1
:101DA000012815D11B4800681B490840B0F1005FAD
:101DB0000ED118484068194908600846006818495B
:101DC000086014490868FEF72EFA15480068804735
:101DD000FFF7BAFF0A201349087013490870114829
:101DE0000078087101F001FC01F017FC00F0C6FD5D
:101DF00008E0601CC4B242F21070FFF712FD142C10
:101E000000D10024F5E70000000C01400004300080
:101E100000080140008000080000FE2F4000002064
:101E20003C000020340000203500002010B504469E
:101E30002CB90120F64909680882002010BDF54937
:101E4000096808688047F24800680A30F6E710B56C
:101E5000EF480068C078F0494978884213DCEC48C4
:101E60000068807878B9EA480068808858B9E848FE
:101E70000068C078E64909688872E64909684868D8
:101E80008047002010BD0220FCE710B504462CB9A5
:101E90000120DF4909680882002010BDDD4909687A
:101EA00088688047DA4800680C30F6E710B5D84BF0
:101EB0001B68D978D64B1B685879D84B1B689A6930
:101EC00090470446D2480068807AE8B13CB9D048CF
:101ED0000068007918B9CE480068807808B10220FF
:101EE00010BD8CB9CB490968C8688047C8480068EC
:101EF0004079C7490968C872C5480068C078C449B4
:101F0000096808730020EBE70220E9E710B50446F2
:101F10002CB90220BE4909680882002010BD0020AB
:101F2000BF490880BA480068007800F07F0018BBFD
:101F3000B7490968487A00F0200131B1B8490978F9
:101F400041F00201B64A117005E0B549097801F087
:101F5000FD01B34A117000F0400131B1B049097878
:101F600041F00101AE4A117005E0AD49097801F078
:101F7000FE01AB4A11703AE0A5480068007800F015
:101F80007F00012801D1A648C8E7A1480068007871
:101F900000F07F00022828D19D4A1268517901F093
:101FA0000F0001F080027AB19E4B03EB8002D2F861
:101FB000002C02F03002102A16D1994A127842F011
:101FC0000102974B1A700FE0964B03EB8002D2F898
:101FD000002C02F44052B2F5805F05D1904A12788D
:101FE00042F001028E4B1A7001E0002096E7894909
:101FF0000968086980478A4890E72DE9F0478448D6
:102000000068007800F07F08B8F1000F0AD180481E
:102010000068407A00F0DF007D49096848720020BE
:10202000BDE8F087B8F1020F7ED17948006840889A
:1020300018B977480068007908B10220F0E7DFF8A6
:10204000D89173480068477927F080052C4670487E
:102050000068407900F0800038B1724901EB8400DB
:10206000D0F8000C00F0300606E06E4901EB840069
:10207000D0F8000C00F4405699F80000A84204D9AA
:102080001EB163480068807A08B90220C8E707F0EB
:10209000800080B1634901EB8400D0F8000C00F0AF
:1020A000300010284BD1E0B201F01DF8E0B2302131
:1020B00000F09FFE43E05B4901EB8400D0F8000C88
:1020C00000F44050B0F5805F39D1E4B9564A92F837
:1020D0002C10E0B201F091F8524A02EB8401D1F8E1
:1020E000001C4BF68F7201EA020080F4805080F4ED
:1020F000005040F4004141F080014A4B03EB840260
:10210000C2F8001C1BE0E0B200F0D5FF454A02EB2C
:102110008401D1F8001C4BF68F7201EA020080F4B2
:10212000805080F4005000E00FE040F4004141F0A6
:1021300080013C4B03EB8402C2F8001C00BF354910
:1021400009684869804700206AE700BF022067E706
:102150002DE9F0412E480068467926F080073C467C
:102160002B480068407900F0800038B12D4901EB20
:102170008400D0F8000C00F0300506E0294901EB9E
:102180008400D0F8000C00F4405523480078A042A9
:1021900008D91F480068408820B91DB11C48006854
:1021A000807A10B90220BDE8F08106F08000A0B16D
:1021B0001C4A02EB8401D1F8001C48F6BF7201EA08
:1021C000020080F0100040F4004141F08001154B06
:1021D00003EB8402C2F8001C14E0124A02EB8401F3
:1021E000D1F8001C4BF68F7201EA020080F4805097
:1021F00040F4004141F080010A4B03EB8402C2F835
:10220000001C00BF03490968886980470020CAE7AD
:102210004C000020580000206003002050000020E7
:1022200044000020005000406403002010B5F7482F
:102230000068407A40F02000F44909684872F44987
:102240000968C8698047002010BD10B50246EF48F4
:102250000068438A32B98888C01AEC4C246820820E
:10226000002010BD08681844FBE72DE9F041E7485D
:10227000006800F110042688A068C0B1BEB1A5882E
:10228000B54200D93546A8B2A168884707462088DC
:10229000401B2080608828446080002000F07FFF81
:1022A0008046AAB24146384600F03EFD00BF208875
:1022B00050B14FF44050D74908800021084600F043
:1022C0007AFF3020D44908802088A188884204DB26
:1022D0000320CE490968087218E02088002804DD30
:1022E0000520CA490968087210E0208870B90620E4
:1022F000C649096808720021C848006880B2801C7D
:10230000C74A42F810103020C3490880BDE8F08168
:102310002DE9F047BD48006800F110052E88BB4844
:102320000068077AD6B9042F18D1BE480078012872
:102330000FD10021B948006880B2801CB84A42F829
:1023400010103020B449088000BF0020B549087043
:1023500003E007271020B049088027E0AC88A64298
:1023600001D8042000E002200746B44200D93446D8
:10237000A0B2A96888478046002000F005FF81468A
:10238000A2B24946404600F0B5FCA1B2002000F0E0
:1023900012FF2888001B288068882044688030202D
:1023A0009D49088000029B49088000BF9749096841
:1023B0000F72BDE8F08770B5022694480068447833
:1023C00092480068007800F07F00002844D1092C72
:1023D00003D1FFF73CFD06465FE0052C14D18B4886
:1023E0000068C0787F280BDC88480068807838B99E
:1023F00086480068808818B984480068807A08B1E7
:10240000082565E0002648E0032C0ED17F480068CF
:10241000C078012807D17D480068808818B9FFF787
:1024200005FF064639E0022637E0012C35D1774812
:102430000068C07801280DD174480068808848B9C8
:1024400072480068407A00F0200018B1FFF7D5FD0F
:10245000064622E0022620E06C480068007800F082
:102460007F00012805D10B2C17D1FFF71FFD064671
:1024700013E066480068007800F07F0002280BD166
:10248000012C03D1FFF7B9FD064606E0032C04D169
:10249000FFF75EFE064600E002264EB1E0B2624A59
:1024A0001268516988470646032E01D109250FE0BD
:1024B0000EB108250CE0062500215848006880B2BE
:1024C000801C574A42F8101030205349088000BF42
:1024D0004E4909680D7270BD2DE9F84F4B480068F0
:1024E00045780027BA46062D1BD148480068007879
:1024F00000F07F00002813D144490968887801283A
:1025000003D149490968CF690AE0022803D1464945
:1025100009680F6A04E0032802D1434909684F6A39
:10252000ADE0002D67D1394800684088002862D1AD
:1025300036480068C08802285DD1344800680079B8
:10254000002858D131480068007800F07F0030B989
:102550002E480068808810B9AFF24F678FE02B4893
:102560000068007800F07F00012811D12749096830
:1025700048792D4909688A690021904700287ED151
:1025800022480068807A002879D0AFF27F6776E031
:102590001E480068007800F07F0002286FD11B48B9
:1025A0000068407900F00F0618480068407900F094
:1025B000700916480068407900F0800038B11B4966
:1025C00001EB8600D0F8000C00F0300806E0174957
:1025D00001EB8600D0F8000C00F440581448007855
:1025E000B0424CD9B9F1000F49D1B8F1000F46D033
:1025F000AFF2E76743E0082D1CD10448006800787B
:1026000000F07F00D8BBAFF2DB7738E04C00002051
:10261000580000205C0000205E000020505C00405C
:1026200000600040460000205000002000500040A4
:10263000600300200A2D22D1C5480068007800F010
:102640007F0001281BD1C2480068807AB8B1C04819
:102650000068408898B9BE480068007978B9BC48DD
:102660000068C08801280AD1B94909684879B94980
:1026700009688A690021904708B9AFF2F17757B12C
:10268000B3480068A0F812A0B14800688761002034
:10269000B84700240FE0AE4A12685078AD4A12687D
:1026A000116988470446032C05D10920A849096807
:1026B0000872BDE8F88FA6480068008A4FF6FF71DF
:1026C000884204D10920A24909680872F1E7022C66
:1026D00003D09F480068008A20B908209C490968F7
:1026E0000872E6E79A480068007800F08000E0B3DE
:1026F00097480068C088009095480068008A009953
:10270000884204D9924900980968088223E09048D9
:102710000068008A8E490968C98888421BDA8C489B
:102720000068008A8B49096891F82C10884203DA06
:102730000020894908700EE085480068008A8549B4
:10274000096891F82C1090FBF1F201FB120010B90E
:102750000120814908707F48006890F82C107C485F
:1027600000688182FFF7D4FD07E0FFE70320784986
:102770000968087200037949088000BF99E710B51D
:10278000774890F82C10002000F037FD7048006862
:10279000007A082805D1400270490880102071494C
:1027A00008806B480068007A092801D1012010BD1B
:1027B0000020FCE738B501246B48006880B2001D9A
:1027C0006A4931F8100080B201EB40000090604887
:1027D0000068007A092832D0009800785C490968BE
:1027E00008700098401C00900098007858490968CB
:1027F00048700098401C0090009800EB4400009046
:10280000009931F8020B009100F0A0FE50490968D0
:102810004880009800EB44000090009931F8020BCA
:10282000009100F093FE4A4909688880009800EB07
:10283000440000900098008845490968C88001203C
:1028400043490968087242480068C08810B9FFF718
:10285000B2FD01E0FFF740FEFFF791FF38BD30B554
:102860000146434B1A78002014E00306414C04EB68
:102870009353D3F8003C48F68F74234048F2800409
:102880002343C4B2234304063A4D05EB9454C4F8E1
:10289000003C401C9042E8D341F08003324C241F9E
:1028A000236030BD10B52A480068047A022C01D09C
:1028B000042C05D1FFF72CFD25480068047A1CE0A4
:1028C000062C19D122480068407805280ED12048EE
:1028D0000068007800F07F0040B91D490968C87899
:1028E000FFF7BDFF24490968086A8047194909684C
:1028F00088688047082400E00824154909680C729C
:10290000FFF73DFF10BD10B511480068047A022C96
:1029100001D0042C01D1082412E0032C01D0052C95
:1029200005D1FFF7A2FC0A480068047A08E0072CEA
:1029300005D108490968C8688047082400E00824D0
:10294000034909680C72FFF71AFF10BD70470000B9
:102950004C00002050000020460000205C000020B9
:10296000640300205E000020505C004000600040D6
:1029700060030020005000405800002010B50848B7
:10298000084908600220096808720748074908607A
:10299000074808490860054909680868804710BD6C
:1029A0004C0400204C000020640300205000002054
:1029B000940300205800002008B50020009022E178
:1029C000C448008800F00F00C3490870084600782A
:1029D00000287CD1C1480068C149088008460088A9
:1029E00000F03000BF490880BD48008800F4405026
:1029F000BB490880B94909684BF6BF7201EA020079
:102A000080F4005080F0200040F4004141F080014B
:102A1000B24A1160AF48008800F0100090BB104629
:102A2000006848F60F71084011460860FFF73AFF4A
:102A3000AA4909684BF6BF7201EA0200A849098851
:102A400001F4805109B180F48050A549098801F44E
:102A5000005109B180F40050A249098801F0100129
:102A600009B180F010009F49098801F0200109B1E7
:102A700080F0200081B241F4004141F08001974A8A
:102A8000116008BDFFE79548006880B20090BDF86E
:102A9000000000F40060B0B390480068C0F30E007E
:102AA00048F68F7108408D490860FFF783FE8B4917
:102AB00009684BF6BF7201EA02008949098801F4EE
:102AC000805109B180F480508549098800E056E0C2
:102AD00001F4005109B180F400508249098801F0E5
:102AE000100109B180F010007E49098801F0200131
:102AF00009B180F0200081B241F4004141F0800131
:102B0000764A1160BDE7FFE7BDF8000000F4004021
:102B1000002878D071480068C0F30E0048F68F7125
:102B200008406E490860FFF7EEFE6C4909684BF6F5
:102B3000BF7201EA02006A49098801F4805109B1B3
:102B400080F480506649098801F4005109B180F48D
:102B500000506449098801F0100109B180F01000AB
:102B60006049098801F0200109B180F0200081B29C
:102B700041F4004141F08001584A116081E7564814
:102B80000078594901EB8000D0F8000C80B2009029
:102B9000BDF8000000F40040C0B14F48007801EBE0
:102BA0008000D0F8000CC0F30E0048F68F7108408A
:102BB000494909784C4A02EB8101C1F8000C4649A9
:102BC0000978491E494A52F821008047BDF80000A3
:102BD00000F08000B8B140480078434901EB800024
:102BE000D0F8000C48F60F7108403B4909783E4A7E
:102BF00002EB8101C1F8000C37490978491E3C4AB3
:102C000052F82100804735484430006880B231498D
:102C1000088000F4004000287FF4D2AE00BF30E707
:102C200010B500244AE047F6FF702C494431086093
:102C30002848008800F00F002749087008460078EF
:102C4000294901EB8000D0F8000C84B204F4004064
:102C5000C8B12148007801EB8000D0F8000CC0F327
:102C60000E0048F68F7108401B4909781E4A02EB96
:102C70008101C1F8000C18490978491E1B4A52F815
:102C8000210080471AE004F08000B8B112480078B3
:102C9000154901EB8000D0F8000C48F60F71084090
:102CA0000D490978104A02EB8101C1F8000C0A496C
:102CB0000978491E0E4A52F82100804707484430DF
:102CC000006880B20349088000F400400028AAD1BF
:102CD00010BD00000C03002048000020005C0040F4
:102CE0005C0000205E000020005000403403002003
:102CF00018030020F0B5144604F1010C4FEA6C07EC
:102D0000DFF848C00CEB41033D460AE00678401C62
:102D100090F800C046EA0C2223F8022B9B1C401CB2
:102D20006D1E002DF2D1F0BDF0B5561C7510074E8A
:102D300006EB41042B4605E034F8047B20F8017BC8
:102D4000401C5B1E002BF7D1F0BD0000006000406E
:102D5000FA4908607047F948006880B27047F7493F
:102D6000091D08607047F548001D006880B2704773
:102D7000F2480830006880B27047F0490C310860B2
:102D80007047EE480C30006880B270474FF6F8711B
:102D90000140EA4A103211607047E848103000687C
:102DA00080B27047E64B03EB8002C2F8001C70470C
:102DB0000146E34A02EB8100D0F8000C80B2704774
:102DC00010B5DF4B03EB8002D2F8002C48F68F13CE
:102DD0001A400A43DA4C04EB8003C3F8002C10BD00
:102DE0000146D74A02EB8100D0F8000C00F4C06025
:102DF000704730B5D24C04EB8003D3F8003C48F662
:102E0000BF7403EA040201F010030BB182F0100258
:102E100001F020030BB182F0200242F4004343F0A2
:102E20008003C74D05EB8004C4F8003C30BD30B5CD
:102E3000C34C04EB8003D3F8003C4BF68F7403EAD9
:102E4000040201F480530BB182F4805201F4005368
:102E50000BB182F4005242F4004343F08003B84DBA
:102E600005EB8004C4F8003C30BD30B503460C4689
:102E70001846FFF79DFF0546012C07D125F4805029
:102E8000AF4A02EB8301C1F8000C08E0022C06D126
:102E900025F01000AA4A02EB8301C1F8000C30BDF6
:102EA0000146A74A02EB8100D0F8000C00F0300088
:102EB00070470146A24A02EB8100D0F8000C00F4F2
:102EC0004050704710B59E4B03EB8002D2F8002CA7
:102ED00048F6BF7302EA030181F0100181F020017E
:102EE00041F4004242F08002954C04EB8003C3F8A9
:102EF000002C10BD10B5924B03EB8002D2F8002CD1
:102F00004BF68F7302EA030181F4805181F4005182
:102F100041F4004242F08002894C04EB8003C3F884
:102F2000002C10BD864A02EB8001D1F8001C41F450
:102F3000807148F68F72114048F280021143804B35
:102F400003EB8002C2F8001C70477D4A02EB80014F
:102F5000D1F8001C48F68F62114048F280021143FC
:102F6000774B03EB8002C2F8001C7047744A02EBF7
:102F70008001D1F8001C48F68F62114048F28002AF
:102F800011436F4B03EB8002C2F8001C70476C4A80
:102F900002EB8001D1F8001C41F4807148F68F7279
:102FA000114048F280021143654B03EB8002C2F8E6
:102FB000001C7047624A02EB8001D1F8001C41F40A
:102FC000807148F68F72114048F2800211435C4BC9
:102FD00003EB8002C2F8001C7047594A02EB8001E3
:102FE000D1F8001C48F68F62114048F2800211436C
:102FF000534B03EB8002C2F8001C70470146504A55
:1030000002EB8100D0F8000C00F03000102801D154
:10301000012070470020FCE70146494A02EB81008D
:10302000D0F8000C00F44050B0F5805F01D10120D1
:1030300070470020FCE7424A02EB8001D1F8001CF7
:10304000C1F30E0148F68F7211403D4B03EB800235
:10305000C2F8001C70473A4A02EB8001D1F8001C0C
:1030600048F60F721140364B03EB8002C2F8001C89
:103070007047334A02EB8001D1F8001C48F68F728A
:1030800011404CF2800211432D4B03EB8002C2F839
:10309000001C70472A4A02EB8001D1F8001C48F658
:1030A0008F72114048F2C0021143254B03EB80029E
:1030B000C2F8001C7047224A02EB8001D1F8001CC4
:1030C00001F4804171B102EB8001D1F8001C48F697
:1030D0008F7211404CF280021143194B03EB8002B6
:1030E000C2F8001C7047164A02EB8001D1F8001CA0
:1030F00001F0400171B102EB8001D1F8001C48F6EB
:103100008F72114048F2C00211430D4B03EB800255
:10311000C2F8001C704710B5094B03EB8002D2F8CF
:10312000002C48F68F731A4048F280031A430A4372
:10313000034C04EB8003C3F8002C10BD405C00403E
:10314000005000400146FC4A02EB8100D0F8000C20
:1031500000F00F00704710B54A105200F74B1B6883
:103160009BB203EBC003F64C44F8132010BD10B51E
:103170004A105300F14A126892B202EBC002121DCB
:10318000EF4C44F8123010BD0146EC48006880B2A4
:1031900000EBC100EA4A32F8100080B270470146E5
:1031A000E648006880B200EBC100001DE44A32F836
:1031B000100080B27047E14A126892B202EBC0027E
:1031C000921CDF4B43F81210704702463E290BDD7C
:1031D000481101F01F030BB9431E98B24FF400438E
:1031E00043EA8023136007E0481001F001030BB1AC
:1031F000431C98B283021360704710B50246CF4853
:10320000006880B200EBC200801DCD4C04EB40038F
:103210003E290BDD481101F01F040CB9441EA0B279
:103220004FF4004444EA80241C6007E0481001F099
:1032300001040CB1441CA0B284021C6010BD014604
:10324000BE48006880B200EBC100801CBC4A32F866
:103250001000C0F3090070470146B848006880B20A
:1032600000EBC100801DB64A32F81000C0F309001F
:10327000704730B54B105B00B04C2468A4B204EB2F
:10328000C004AF4D45F8143053105C00AB4B1B68C5
:103290009BB203EBC0031B1D45F8134030BD10B5B6
:1032A0004A105200A54B1B689BB203EBC003A44C11
:1032B00044F8132010BD10B54A1053009F4A1268FD
:1032C00092B202EBC002121D9D4C44F8123010BDA8
:1032D00001469A48006880B200EBC100984A32F873
:1032E000100080B2704701469448006880B200EB3D
:1032F000C100001D924A32F8100080B2704730B50C
:103300000B46012B1FD18D49096889B201EBC00121
:10331000891C8B4D05EB41043E2A0BDD511102F057
:103320001F050DB94D1EA9B24FF4004545EA812590
:10333000256007E0511002F001050DB14D1CA9B246
:103340008D0225600AE0022B08D17C49096889B208
:1033500001EBC001891C7A4C44F81120012B1FD1CC
:103360007649096889B201EBC001891D744D05EBEE
:1033700041043E2A0BDD511102F01F050DB94D1E0F
:10338000A9B24FF4004545EA8125256007E05110B8
:1033900002F001050DB14D1CA9B28D0225600AE0B5
:1033A000022B08D16549096889B201EBC001891D6A
:1033B000634C44F8112030BD30B5034601291FD1BC
:1033C0005E48006880B200EBC300801C5C4D05EBDA
:1033D00040043E2A0BDD501102F01F050DB9451EB9
:1033E000A8B24FF4004545EA8025256007E050105B
:1033F00002F001050DB1451CA8B2850225600AE066
:10340000022908D14D48006880B200EBC300801C3F
:103410004B4C44F8102030BD30B5034601291FD174
:103420004648006880B200EBC300801D444D05EBA8
:1034300040043E2A0BDD501102F01F050DB9451E58
:10344000A8B24FF4004545EA8025256007E05010FA
:1034500002F001050DB1451CA8B2850225600AE005
:10346000022908D13548006880B200EBC300801DF6
:10347000334C44F8102030BD01463048006880B21B
:1034800000EBC100801C2E4A32F81000C0F3090086
:10349000704701462948006880B200EBC100801DDA
:1034A000274A32F81000C0F309007047014623484C
:1034B000006880B200EBC100801D214A32F8100084
:1034C00000F47C4008B1012070471C48006880B2BD
:1034D00000EBC100801C1A4A32F81000C0F309004A
:1034E00008B10220F0E70020EEE710B5012910D165
:1034F000114B03EB8002D2F8002C48F68F731A4070
:1035000048F2C0031A430C4C04EB8003C3F8002CB0
:1035100011E002290FD1084B03EB8002D2F8002CF6
:1035200048F68F731A404CF280031A43024C04EBA6
:103530008003C3F8002C10BD00500040505C0040D8
:1035400000600040024641EA022070470146CAB2CC
:103550000B1243EA0220704700201D4908604FF417
:103560003F401C490880084600881949091F086027
:10357000002070472DE9F04104460E46154604F040
:103580007F00FFF701FE0746AAB239463046FFF733
:10359000B1FBA9B204F07F00FFF70DFE0020BDE8EB
:1035A000F0812DE9F04104460E46002504F07F002D
:1035B000FFF752FE054604F07F00FFF7F0FD0746D7
:1035C0002A4639463046FFF7AFFB2846BDE8F08172
:1035D000445C00405600002018B10021564A11609A
:1035E00002E00121544A1160704710B5FDF773FCE9
:1035F00000F01EFE0120FFF7EFFF4FF48020FDF7E3
:1036000042FC4FF480204D49086008204871012099
:1036100088710846FDF7C0FB10BD10B50020FDF70E
:10362000E7FF0121C805FEF790F810BD03204449CB
:103630000860704710B5434CA07A18B10520404986
:10364000086002E001203E490860FCF7F6FE10BD6C
:1036500008B5482003234FF480423B4900900420E2
:10366000FEF706F908BD10B54FF480413648FDF766
:10367000C6F810BD10B54FF4A060FCF75FFF142032
:103680003249087002204870002088700120C870FC
:103690000846FCF758FF2A202C4908700020487083
:1036A0000120C8700846FCF74EFF10BD0020FFF750
:1036B00093FF00BF2648006800F4E06025490843F6
:1036C000001D23490860BFF3408F00BF00BFFEE725
:1036D00030B50B46002100BF16E00A24B4EB107F82
:1036E00005D9302404EB107403F8114005E041249F
:1036F00004EB10740A3C03F81140000100254C0053
:10370000641C1D554C1CE1B29142E6DB30BD70B526
:1037100011480468001D0568001D0668344454B152
:1037200008220E492046FFF7D3FF04220B4910312F
:103730002846FFF7CDFF70BD9401234264000020AE
:10374000000400204C040020000801406C00002010
:103750000CED00E00000FA05E8F7FF1FEF00002085
:1037600010B588B000246848006868490880084699
:10377000008800F4004066490988084008B1FFF756
:103780001BF96248008800F480606149098808409C
:1037900030B14FF6FF305C4908605E4948688047A9
:1037A0005A48008800F4005059490988084018B167
:1037B0004DF6FF70544908605448008800F480506A
:1037C00053490988084030B14EF6FF704E490860F1
:1037D000002000F0BBFC4D48008800F400604C491C
:1037E0000988084060B14C48007810B100F027FC0F
:1037F00002E0022000F0AAFC4FF2FF70424908608C
:103800004248008800F4007041490988084040B1EE
:103810004FF6FF503C49086040480078401C3F4943
:1038200008703A48008800F48070394909880840D7
:10383000002866D04FF6FF6033490860081D006815
:1038400000F40040002856D035480068401C344938
:10385000086008460068032850D92B48001F0068FC
:1038600000F00800002849D12748001F006880B2F6
:103870002C490860002408E02B4901EB8400D0F8B3
:10388000000C80B24DF82400641C082CF4D32548A9
:10389000006840F00100234908600846006880B2D3
:1038A0001949091F08601F48006820F001001D49E0
:1038B00008600846006880B21349091F086000BF0D
:1038C0001148006800F480600028F9D04FF6FF30FE
:1038D0000D490860002408E05DF8240080B2124A17
:1038E00002EB8401C1F8000C641C082CF4D3002006
:1038F0000B49086002E0002009490860072000F039
:1039000025FC08B010BD0000445C00400C03002002
:103910005600002064030020040400200E03002051
:1039200010030020140300200050004010B5FD4C8F
:10393000FFF7EDFE0020A07200F058FBFFF70CFE31
:10394000FFF798FE0020F849086010BD10B5002070
:10395000F4498872F548C079F54909684872002031
:10396000F4490860F3485038006848F68F11084061
:1039700040F40070EF4950390860096848F6BF729A
:1039800001EA020080F0200040F4004141F0800193
:10399000E84A503A11601021E648006880B2001DE4
:1039A000E54A42F81010E54890F82C100020FFF787
:1039B00024FC5021DF4800680004DF4A02EBD030CD
:1039C0000160DE4890F82C100020FFF7F4FB002087
:1039D000FFF7CCFA0020FFF78DFA0020FEF73FFF3B
:1039E0000120D149086010BDCE48817A11B105216E
:1039F000CD4A116070470420CB490860704770477A
:103A000010B50020CE490860CE480068007D00F067
:103A1000040058B10620CC49087008460078CB490C
:103A20000871002048708870C87010BD0820C64911
:103A3000087008460078C5490871002048708870F1
:103A4000C870FFF733FE00BFEFE770B5B54D68787B
:103A5000032877D1BC480078042875D1BC48006899
:103A600000284ED1BB48007818B9BB48006801282F
:103A700057D0B848007821281DD1B74800680528DC
:103A800019D1B4484078B5490860B24880780968CF
:103A900001EB0020B1490860AE48C078096801EB2D
:103AA0000040AE490860AB480079096801EB00604E
:103AB000AA49086035E0A7480078412831D1A648D6
:103AC000006805282DD1A3484078A4490860A14882
:103AD0008078096801EB0020A04908609D48C07803
:103AE000096801EB00409D4908609A48007909681F
:103AF00001EB0060994908600846006800F09AFBF5
:103B00000FE09348006801280BD991480068801E97
:103B10009249096801EB80248F480168204600F033
:103B200090FB00208C490860894908600320864981
:103B30000870084600788549087100204870887030
:103B4000C87070BD07E0FFE77F480078072802D102
:103B5000FFF756FFF5E700BFF3E710B504467A48D4
:103B60000078032802D0062851D12AE07A4800685C
:103B7000D8B1042074490870084600787349087168
:103B80007348006850B973480078412806D10A4646
:103B900000217248006800F076FB11E06B4A0121B9
:103BA0006E48006800F06FFB0AE005206649087067
:103BB0000846007865490871002048708870C87010
:103BC00026E05F48006801280CD107205E49087094
:103BD000084600785D49087101204870002088700F
:103BE000C87013E05648006880B956480068007DE8
:103BF00000F0040050B102205349087008460078D4
:103C000052490871002048708870C87000E000BFF9
:103C100000BF2CB90620464909680882002010BD63
:103C20004A48FCE7014629B90120414A126810823E
:103C3000002070474448FCE7F0B502463949CC788B
:103C40008B784348036000680002414F3860384673
:103C5000006820443860CC798B793F480460006864
:103C600000023D4F386038460068184438604D8A7D
:103C70000320354F387038460078344F3871364855
:103C80000088401B86B222B92948006806820020BD
:103C9000F0BD30482844FBE72DE9F05F0546214C94
:103CA0004FF0000AD346E778A678294806600068F6
:103CB0000002274908600846006838440860E77930
:103CC000A679254807600068000223490860084675
:103CD00000683044086016480068B0F812801C483C
:103CE0000068E8BB08460068032803D9022016498B
:103CF000087002E00920144908701348007813493D
:103D00000871002048708870C8701249087021201E
:103D100048704120887035BB032005490968088236
:103D200000201EE04C04002000040020820000203F
:103D30004C000020505C0040006000406403002004
:103D400058030020C003002034000020350000206C
:103D50005003002088040020540300205C0300204E
:103D600004E0BDE8F09F9648BDE8F09F95480068E4
:103D7000012827D9092094490870084600789349FA
:103D80000871002048708870C8708E480068801ED6
:103D90008F49096801EB802B8E480168584600F076
:103DA00071FA82468B480088A0EB08001FFA80F960
:103DB0002DB989480068A0F810900020D4E70AEBDC
:103DC0000800D1E70F2080490870084600787F4935
:103DD0000871002048708870C87000BFC4E770B5D3
:103DE000044600257C480068007800F07F00212808
:103DF00028D1022C0AD174480078022803D07248D6
:103E00000078092802D1AFF26F151DE0012C0DD109
:103E10006D480078022803D06B480078052805D14A
:103E2000032069490870AFF2EF150DE0052C02D1AF
:103E3000AFF20F2508E0032C02D1AFF2E12503E039
:103E4000022070BD0220FCE70DB90220F9E76248AC
:103E50000068856100216048006841820020A84711
:103E60000020EEE701465C480068007800F07F0023
:103E7000212879D1012917D153480078052803D08A
:103E80005148007802286FD10120544A1060062062
:103E90004D4A107000204D4A50709070D0704A48C2
:103EA000007810710020704702290CD10220464A88
:103EB00010700020454A50709070D07042480078D1
:103EC00010710020EFE7042923D13F4800780A2829
:103ED0000ED102203C4A107000203C4A10705070F5
:103EE0009070D070384800781071002050710EE04A
:103EF0000A20354A10700E20344A1070002050708D
:103F00009070D070304800781071002050710020FF
:103F1000C9E7062928D12C48007802280FD02A4862
:103F2000007803280BD028480078052807D02648B9
:103F30000078062803D024480078092811D10220EF
:103F4000214A10700020214A107050709070D0707B
:103F50001D4800781071002050711A4A10601D4AE7
:103F6000106000209FE7FFE702209CE710B50446A1
:103F70001B492046FEF769F910BD10B504461949E2
:103F80002046FEF762F910BD70B50546124800687C
:103F9000C478082C01DD002070BD134800EBC4017B
:103FA0002846FEF752F9F7E70246032901DD022011
:103FB0007047022A01DD0220FAE70020F8E700003E
:103FC0008804002050030020340000203500002029
:103FD0005C030020540300204C0000205803002004
:103FE000B8030020C0030020C803002010B5012042
:103FF000FFF7F2FA01248648046000208549088012
:1040000008460088824908600020091D08604FF4B6
:10401000E05080490880084600887D4908600020FB
:1040200010BD10B501207A4908600020091D086004
:10403000FFF7D2FA032076490860002010BD38B59A
:104040000021002200230093714B1B6898B200BF2F
:1040500009E0714C04EB8103D3F8003C9BB26F4C38
:1040600044F82130491C0829F3D340F48060684BA0
:10407000186040F00100186020F00100186000BFD7
:10408000634B1B1D1B6803F48063002BF8D04FF6B5
:10409000FF335F4C241D2360002109E05F4B53F880
:1040A00021309BB25C4D05EB8104C4F8003C491CF7
:1040B0000829F3D340F00800554B18601B6898B2EC
:1040C00040F00400524B1860554B1B680093544B52
:1040D0001A6822F0030242F001021A60514B1B6879
:1040E00043F004034F4C2360494B1B1D1B6803F432
:1040F000805333B930BF23461B6823F00403236089
:1041000014E04EF6FF73424C241D2360231F1B68EE
:1041100098B220F00800231F1860414C009B2360D8
:10412000404B1B6823F004033E4C236038BD10B5A0
:104130003748006884B224F0040435480460FFF76F
:1041400079FA4FF43F403249086010BD70B505461A
:10415000072D01D0344805703348007808284ED226
:10416000DFE800F004111A202B384E4F2F4800686A
:1041700028B9FFF7DCFF06202B49087002E0052074
:104180002949087041E0FFF7D2FF04202649087052
:1041900001202649086038E00220234948700320A6
:1041A000087032E020484078401E1F494870084699
:1041B000407808B90420087027E01548006884B2E8
:1041C00044F01004124804600520174908700A20C2
:1041D00048701AE014484078401E13494870084659
:1041E000407858B90A48006884B224F0100408489E
:1041F00004600620087000200C49086005E000BF3C
:1042000000BF06200849087000BF00BF70BD000055
:10421000405C004056000020005000406804002030
:104220000070004010ED00E00504002008040020AC
:104230000020704710B504462046FCF791FE002090
:1042400010BD70B506460D46002405F0030060B1B0
:104250002C4603E0FF2017490855641C4FF6FC71FB
:1042600005EA0100001DA042F4D8002406E0114830
:1042700001593046FCF744FF361D241DAC42F6D3ED
:10428000002070BD704730B50346C3F3816401F070
:104290000105094800EB840010F81500507006482D
:1042A00000EB840030F81500000A90700020D070F8
:1042B00030BD0000880400207246000870470000EE
:1042C0000FB4044910B503AA029800F085F910BC98
:1042D0005DF814FB2C0000200FB41CB5074B06AA98
:1042E0007B4469460090059800F05DF9002069461E
:1042F00000F06CF91CBC5DF814FB0000E902000042
:1043000070B5044685690068C10601D5302600E015
:104310002026C00707D070BDD4E901213046904760
:10432000206A401C20626D1EF6D570BD70B5044633
:1043300085690078C00707D170BDD4E9012120202C
:104340009047206A401C20626D1EF6D570BD0000AB
:1043500070B504460D4621461068AFF300802188F1
:10436000090502D50F4A7A4402E00E4A7A440E3219
:10437000002104F1240305E000F00F060009965D1A
:104380005E54491C0028F7D120780023000704D58B
:10439000702D02D009B1022311322046BDE87040D1
:1043A00000F0A2B81C0300002DE9F05F8946044626
:1043B0004FF0000ADFF824B1FB44C0F820A02046EB
:1043C000E168884700287DD0252806D0D4E901215E
:1043D0009047206A401C2062F1E700255F46204696
:1043E000E16888472028064607DB312E05D2B81938
:1043F00010F8200C08B10543F1E7A80701D525F016
:104400000405C4F81CA00027C4F818A02A2E09D05F
:10441000304600F027F938B304EB8708303EC8F87F
:10442000186019E059F8041B204604EB87029161DB
:10443000E1688847012F064618D1E069002820DA94
:1044400025F020051DE0D8F8180000EB800006EBF1
:1044500040003038C8F818002046E1688847064612
:1044600000F000F90028EED1012F0AD02E2E08D13D
:104470002046E16888477F1C0646022F45F020054C
:10448000C4DBA069002803DA404245F00105A061C1
:10449000E80701D025F01005A6B1A6F141001928C2
:1044A00002D8203645F400654A463146204625604C
:1044B0004D46FBF797FE60B1012807D0ED1D25F0B2
:1044C000070000E007E000F1080978E705F10409BA
:1044D00075E730467AE7206ABDE8F09FF2020000F7
:1044E00070477047704770472DE9F0470D46994671
:1044F0009246044600F124080168880604D5E06964
:1045000021F01001216000E00120A84201DD471BDD
:1045100000E00027A1697A1902EB0900081AA061DE
:104520002078C00602D42046FFF7EAFE002608E005
:10453000D4E901211AF806009047206A401C761C35
:1045400020624E45F4DB2078C0060AD52046FFF7EE
:10455000D7FE06E0D4E9012130209047206A401CB4
:104560002062381EA7F10107F4DC07E0D4E901213D
:1045700018F805009047206A401C2062281EA5F10B
:104580000105F3DC2046FFF7D1FE2078000602D5B6
:104590000220BDE8F0870120FBE7000001694A1C0A
:1045A00002610878704700B58FB0CDE90131002174
:1045B000059105497944CDE9031011466846FFF796
:1045C000F3FE0FB000BD0000E5FFFFFF0A6802F830
:1045D000010B0A6070470000074B70B50D467B4425
:1045E000FFF7E1FF0446284600F008F810B14FF04D
:1045F000FF3070BD204670BDE1D5FFFF007B00F0AD
:1046000080007047754600F029F8AE4605006946FF
:10461000534620F00700854618B020B5FBF71AFE78
:10462000BDE820404FF000064FF000074FF00008B3
:104630004FF0000B21F00701AC46ACE8C009ACE834
:10464000C009ACE8C009ACE8C0098D467047044613
:10465000AFF300802046FBF7D7FD0000004870470D
:104660008808002030380A2801D201207047002035
:104670007047B80B1400E803190032003200E80359
:104680001900E8032D0030313233343536373839EC
:10469000414243444546403058003031323334358E
:1046A00036373839616263646566403078000400EB
:1046B00000080000000000000002000100001000DF
:1046C000E0460008000000200C0400006C01000817
:1046D0006C4800080C040020DC0A0000C801000837
:1046E0001184A24A04680901020304060708090CA0
:1046F00069100548020406081312013202164083AD
:104700000411DF1A0262150109022D1301012C8028
:104710003209891DFE010204092A01091A05092A24
:104720000209260609210BFF100B041A01040309D4
:10473000042603531254124D126912631272126F3F
:1047400012651A6C0412633A740E3A6E1812735A98
:1047500014261233123212201244124612559A1A9B
:1047600014E1146203401A493C1A744A1A72081A76
:1047700061541A20341A6C0A12731A680C1220122F
:104780002F12301A78041A38048902291612363A80
:104790002A0C12321A4B301A2C081A350E89145A68
:1047A000676212531A5066C9581A3A043A4D321ABF
:1047B00050487A3466C902122F1A31241A38542903
:1047C00024495201101A6A62124E124F0A1552629F
:1047D00012395A57465A4666294CE9CC298A29D0BB
:1047E000091868092A6A0A17476A69D0490809320C
:1047F0006A3A536A12475A4C44093C6AF1134D29EC
:104800000A320804D11280240801011B2D391C1919
:10481000041AFF04134B3A1408DF3D1408653E14D4
:1048200008A93F1B086D041A7B041A8904415A40E9
:104830007C2AE9340915641AF71C22703320121AF5
:104840008208322D1AAF0832041AB30832261AD958
:104850000832141AED08321A1307013320625A691C
:0C486000081ACB08726A19A3510000006E
:0400000508000131BD
:00000001FF
